:020000040800F2
:100000009006002049020008D11900085319000881
:10001000CD190008FF1200089D2400080000000010
:10002000000000000000000000000000AD1B000800
:100030005316000800000000611A0008651E000841
:1000400063020008630200086302000863020008FC
:1000500063020008630200086302000863020008EC
:1000600063020008630200086302000863020008DC
:1000700063020008630200086302000863020008CC
:1000800063020008630200086302000835130008D9
:1000900005130008630200086302000863020008F9
:1000A000630200086302000863020008630200089C
:1000B000891F00080120000863020008630200088D
:1000C000630200086302000863020008630200087C
:1000D000630200085121000821220008ED220008D7
:1000E000630200086302000863020008630200085C
:1000F000630200086302000863020008630200084C
:10010000630200086302000863020008630200083B
:10011000630200086302000863020008630200082B
:10012000630200086302000863020008630200081B
:10013000630200086302000863020008630200080B
:1001400063020008630200086302000863020008FB
:100150006302000863020008630200080923000824
:1001600063020008630200086302000863020008DB
:1001700063020008630200086302000863020008CB
:10018000630200086302000800F002F800F04CF877
:100190000AA090E8000C82448344AAF10107DA45E2
:1001A00001D100F041F8AFF2090EBAE80F0013F0E8
:1001B000010F18BFFB1A43F001031847E0240000A9
:1001C00000250000103A24BF78C878C1FAD8520739
:1001D00024BF30C830C144BF04680C6070470000C1
:1001E0000023002400250026103A28BF78C1FBD840
:1001F000520728BF30C148BF0B607047662902F024
:10020000EC81782900F08880002070471FB502F04B
:10021000DFF900F037FB04000020002102F0C2F9F2
:10022000E0601FBD10B510BD00F02CFC1146FFF7BB
:10023000EDFF02F0A3F900F04AFC03B4FFF7F2FF70
:1002400003BC00F08DFC00000948804709480047C6
:10025000FEE7FEE7FEE7FEE7FEE7FEE7FEE7FEE776
:10026000FEE7FEE704480549054A064B70470000D3
:10027000AD1E0008890100089000002090060020B3
:1002800090020020900200200FB41CB5074B06AA74
:100290007B4469460090059800F0DBFA002069462F
:1002A00000F0EAFA1CBC5DF814FB0000E505000054
:1002B0002DE9F0410E460446002020622046E16808
:1002C000884730B3252805D0D4E901219047206A1A
:1002D000401CF2E7E168204600278847050018D057
:1002E000A5F14100192802D820354FF400673246A5
:1002F000294620462760FFF781FF40B1012804D03E
:10030000F61D26F007060836D8E7361DD6E728463C
:10031000DAE7206ABDE8F08170B504460D46214653
:100320001068AFF300802188090502D50F4A7A448E
:1003300002E00E4A7A440E32002104F1240305E063
:1003400000F00F060009965D5E54491C0028F7D1A5
:1003500020780023000704D5702D02D009B10223B4
:1003600011322046BDE8704000F005B8AC22000014
:100370007047704770472DE9F0470D469946924601
:10038000044600F124080168880604D5E06921F0DC
:100390001001216000E00120A84201DD471B00E0C0
:1003A0000027A1697A1902EB0900081AA0612078D8
:1003B000C00602D42046AFF30080002608E0D4E94E
:1003C00001211AF806009047206A401C761C206222
:1003D0004E45F4DB2078C0060AD52046AFF30080F6
:1003E00006E0D4E9012130209047206A401C2062B9
:1003F000381EA7F10107F4DC07E0D4E9012118F861
:1004000005009047206A401C2062281EA5F10105C6
:10041000F3DC2046AFF300802078000602D50220EE
:10042000BDE8F0870120FBE770472DE9FF4F0C4640
:100430001E464FF0FF378BB0D2E90001DDF8608037
:100440000A908A46C1F30A5505B93D46002108467F
:100450004FF00000BAF1000F00F4400005DA00EBA5
:1004600080004FF4400101EA50004FEA9059B9F181
:10047000010F00DDB9460A9850EA4A000ED044F652
:100480001050A5F2FF3545432F14B8F1000F1ED0D0
:100490007542291E1EDDC9F100021CE0B8F1010FF2
:1004A0004FF0000001D0302103E0F24305E0215479
:1004B000401CB042FBDB30460022002121540B9946
:1004C000C1F80880C1E900200FB0BDE8F08FBD1B66
:1004D0006D1CDEE74A4600DA694206A800F05CFAC5
:1004E00006AB93E8070003AB83E8070050460A9980
:1004F00000F03DFB8DE80700A0F500501F3800908C
:100500000398002D0ADD42F21F014A4608440023E9
:1005100003A90390684600F0A6FD09E0A0F500508D
:100520004A461F38002303A90390684600F0B0FD37
:100530008DE807000004000C03D04FF0FF304108A5
:1005400000E01046B8F1000F03D0002200921546DB
:100550001EE0751E05D400F099F9303262556D1E0B
:10056000F9D5B3460122084302D000227F1C04E0E3
:100570002078302801D100227F1E002A099784D0DC
:100580001DE0112D07DA00F081F9303262556D1C43
:1005900050EA0102F5D1084302D00098C8B10EE03C
:1005A0000021681E05E0235C625C63542254401EF7
:1005B000491C8142F7DBAB46A81B401E0990002076
:1005C00004F80B000B98099AC0F80880C0E9002BCA
:1005D0007AE711264FF0000857E72DE9F04F8846DB
:1005E0000446D21D22F0070191B0D1E90001CDE906
:1005F0000A0101F055FF02460B98C00F01D02D20D3
:1006000007E02068810701D52B2002E0202101EAC4
:10061000C000032A099001D0072A05DB03464146A2
:10062000204600F079F90BE12078800601D5E069D9
:1006300000E00620B8F1650F814606D0B8F1660FDC
:1006400018D0B8F1670F70D131E00020B9F1110F67
:10065000009001DB112301E009F101030AAA01A9BD
:100660000CA8FFF7E2FEDDE90C70002609F1010598
:10067000834647E001204B4600904FF000470AAA0E
:1006800001A90CA8FFF7D1FEDDE90DB00C995D467C
:10069000002610B909F101000D18B9EB050003D4CB
:1006A000C0F1FF3609F10105A5EB09002BE0B9F116
:1006B000010F01DA4FF001090020B9F1110F00908C
:1006C000484601DD112300E003460AAA01A90CA84F
:1006D000FFF7ABFEDDE90C704D460026834620781F
:1006E00000070AD4AB4500DA5D4601A8012D04DD00
:1006F000411911F8011C302907D04F4502DA17F1D2
:10070000040F04DA012082460FE06D1EEEE7002F91
:1007100002DCED1B3E4403E0781CA84200DD7D1C9A
:10072000B81B00F1010A4FF000472078000703D4FE
:10073000AA4501DB4FF0FF3A0021B7F1004F0DF160
:1007400043088DF8431024D002202B23002F01DA18
:100750007F422D230A21021EA0F1010000DC5FB1BF
:1007600097FBF1FC97FBF1F201FB1C7C17460CF1A7
:10077000300C08F801CDEEE7A8F1010003702188E4
:10078000090501D5452100E06521A0F1010800F827
:10079000011C09980FA9A1EB0807FF1D00B101205A
:1007A000411901EBEA70A1693844081A401EA061A2
:1007B0002078C00602D42046AFF30080099828B103
:1007C000D4E901219047206A401C20622078C006AD
:1007D00022D52046AFF300801EE0002E04DBB34597
:1007E00002DD01A8805D00E03020D4E901219047BE
:1007F000206A401C2062761CAAF101005FEA000A10
:100800000AD100F03FF8C0680168405CD4E90121DA
:100810009047206A401C2062281EA5F10105DCDCFF
:1008200007E0D4E9012118F8010B9047206A401C29
:100830002062381EA7F10107F3DC2046AFF30080E9
:10084000032011B041E6000001694A1C02610878EA
:10085000704700B58FB0CDE9013100210591054900
:100860007944CDE9031011466846FFF721FD0FB02A
:1008700000BD0000E5FFFFFF0A6802F8010B0A60F7
:1008800070470000004870474C00002030B5B0F1C0
:100890000A024FEA900E71F100034EEA817EB0EB3E
:1008A0000E0061EB91014FEA101E4EEA017E10EB43
:1008B0000E0041EB11114FEA102E4EEA016E10EBC3
:1008C0000E0041EB11214FEA104E4EEA014E10EBA3
:1008D0000E0041EB1141401841F100014FEAD000F8
:1008E00040EA41704FEAD10110EB80054FEA8104E4
:1008F00044EA907444EB01046D1944EB0404521B68
:10090000A3414FF0000348BF0A3200D530BD401C60
:1009100041F1000130BD00002DE9F0411F460446C1
:1009200003260168072A01F4006004DB08B116A55C
:1009300005E016A503E008B115A500E015A521F016
:1009400010002060A069C01EA0610FB1401EA06110
:100950002046AFF300804FB1D4E9012138469047DB
:10096000206A401C2062C01C206206E0206AFAE770
:10097000D4E9012115F8010B9047761EF8D22046E4
:10098000AFF30080BDE8F0814E414E006E616E0015
:10099000494E4600696E66002DE9F04781461646CD
:1009A0008AB0354878440DC88DE80D003248784447
:1009B000801C03AC0DC884E80D0041F69B30084450
:1009C000372190FBF1F290FBF1F5A5F1800501FBD9
:1009D00012041B3C02D56442012000E00020DFF835
:1009E00098A080460027FA44AAF1BE0A0EE0E0076C
:1009F0000AD03246684607EB470101230AEB810122
:100A000000F046FB8DE8070064107F1C002CEED13F
:100A1000194F7F44AE3F19E0E80715D007EB0410EB
:100A20000DF1180A90E80E008AE80E00C068F04246
:100A300001D1981908903246012306A903A800F0B5
:100A400027FB03AB83E807006D10641C002DE3D186
:100A50004FF0010332466946B8F1000F03A802D0F7
:100A600000F001FB01E000F013FBC9E90001C9F847
:100A700008200AB0BDE8F087DC1C00000048704781
:100A80002C0000207546FFF7F9FFAE4605006946C9
:100A9000534620F00700854618B020B5FFF7E2FB6B
:100AA000BDE820404FF000064FF000074FF000086F
:100AB0004FF0000B21F00701AC46ACE8C009ACE8F0
:100AC000C009ACE8C009ACE8C0098D46704710B554
:100AD0000446AFF300802046BDE81040FFF7ADBBF1
:100AE0004FF0013C50F8042B51F8043B9A4221D1BD
:100AF000A2EB0C03934313EACC1317D150F8042B49
:100B000051F8043B9A4215D1A2EB0C03934313EA2C
:100B1000CC130BD150F8042B51F8043B9A4209D165
:100B2000A2EB0C03934313EACC13DBD04FF000008D
:100B3000704700BFD01A01BAB1FA81F101F0180173
:100B400022FA01F0CB40C1F12001DBB2C0B2C01AE1
:100B50002CFA01F3D11A914311EAC311E6D170477F
:100B600001491820ABBEFEE72600020070475FEA8D
:100B7000400C08BF91F0000F4FEA8C234FEAC122CE
:100B800043EA51514FEA1C5018BF00F5F0404FEABC
:100B9000300018BF41F000415FEA6C5C00F0298032
:100BA000BCF1FF3F08BF40F080407047130C06BF08
:100BB00012044FF0100C4FF0000C130E04BF120281
:100BC0000CF1080C130F04BF12010CF1040C930F6D
:100BD00004BF92000CF1020CD30F04BF52000CF1C1
:100BE000010C11464FF00002A0F11F00A0EB0C0019
:100BF000704711F0004F08BF704731F000413FF4DB
:100C0000D5AF0B0C06BF09044FF0100C4FF0000CD1
:100C10000B0E04BF09020CF1080C0B0F04BF0901F5
:100C20000CF1040C8B0F04BF89000CF1020CCB0FEC
:100C300004BF49000CF1010CCCF12003A0EB0C0027
:100C400022FA03F302FA0CF241EA030100F1010077
:100C5000704720F07F4C80EA030023F07F47ACEB25
:100C6000070303F57C5300F0004003F1FF032DE977
:100C700080494FEA154B09B44FEA144325EA0B4E5D
:100C800024EA03480FF2042606EB132749083E78AE
:100C90005FEA320203FB0667C7F5000707FB06F6AB
:100CA0004FEA54374FEAD64606F1020607FB066CB8
:100CB000CCF1005C4FEA1C472CEA074C07FB06F41A
:100CC0000CFB06F504EB15464FEA961634BF0020E0
:100CD0004FF000404FEAD13706FB07FC4FEA1C4CAF
:100CE0000CFB0BF7D21B03FB0CF761EB07010CFBB2
:100CF0000EF7B0EB074072EB17420CFB08F734BF5E
:100D0000A2EB0742B2EB074261EB17414FEA0C44FA
:100D10004FEA910706FB07FC4FEA1C4C0CFB0BF754
:100D2000B0EBC74072EB573203FB0CF734BFA2EBBA
:100D3000C742B2EBC74261EB57310CFB0EF7B0EB89
:100D4000C70072EB57720CFB08F734BFA2EBC70267
:100D5000B2EBC70261EB5771039F4FEA816141EA31
:100D6000921104EBCC044FEAD1374FEA826206FBC2
:100D700007FC42EA90124FEA80604FEA1C4C0CFBE1
:100D80000BF7D21B03FB0CF761EB07010CFB0EF713
:100D9000B0EB074072EB17420CFB08F734BFA2EB35
:100DA0000742B2EB074261EB17414FEA8C554FEA1D
:100DB000910704EB9C2406FB07FC4FEA1C4C0CFB40
:100DC0000BF7B0EBC74072EB573203FB0CF734BFA5
:100DD000A2EBC742B2EBC74261EB57310CFB0EF7F7
:100DE000B0EBC70072EB57720CFB08F734BFA2EBF5
:100DF000C702B2EBC70261EB577115EB4C254FEA06
:100E0000816141EA92114FEA82624FEAD13742EAA8
:100E1000901206FB07FC44F100044FEA80604FEAA1
:100E20001C4C0CFB0BF7D21B03FB0CF761EB07010F
:100E30000CFB0EF7B0EB074072EB17420CFB08F708
:100E400034BFA2EB0742B2EB074261EB174115EB4F
:100E50001C154FEA813141EA92414FEA823242EA5F
:100E600090424FEA80304FEA0C7644F1000448EAA1
:100E700003434EEA0B484FF0000EB2EB080C71EB47
:100E8000030724BF624639464EEB0E0E4FF0000BAF
:100E90000018524149414BEB0B0BB2EB080C71EBC4
:100EA00003077BF1000B24BF624639464EEB0E0E62
:100EB0004FF0000B0018524149414BEB0B0BB2EBCA
:100EC000080C71EB03077BF1000B24BF6246394627
:100ED0004EEB0E0E51EA020718BF46F0010616EB64
:100EE0000E7655F1000254F1000103D5BDE88901E9
:100EF000BDE80088BDE88901BDE80048B619524147
:100F000041EB0101A3F10103704780807F7E7D7C6E
:100F10007B7A7978777676757473727171706F6E8B
:100F20006E6D6C6C6B6A6A69686867666665646436
:100F3000636362616160605F5F5E5E5D5D5C5C5BC0
:100F40005B5A5A595958585757565655555554542F
:100F5000535352525251515050504F4F4F4E4E4D8D
:100F60004D4D4C4C4C4B4B4B4A4A4A4949494848D9
:100F70004847474747464646454545444444444319
:100F800043434342424242414141002B9C4630D4BC
:100F900077002BD01CB54FEA370703B44FF0100091
:100FA0004FF01001BAF1000F06D0BCF1000FDCBF0A
:100FB00040F0080040F008014FF000000FBCBDE811
:100FC00010400BF1010BBBF1010F08BF5FEA1707DF
:100FD00022BF12F1010211F101014FF0004143F172
:100FE000000300F0004043EA00007047F9D35708BF
:100FF000D0E746EA064613F1400F4FEA16461FDDDA
:1010000013F1200FDFBF16430A46002120335B4255
:10101000BED0C3F1200746EA064602FA07F74FEAB8
:10102000164646EA0706C3F1200722FA03F201FA40
:1010300007F721FA03F14FF0000342EA0702A7E79E
:1010400046EA020646EA06464FEA164646EA010620
:10105000BCBF46EA0646360C4FF000034FF00002D4
:101060004FF0000194E72DE9804C9A46934670B406
:1010700091E8380007C831EA400C48BF34EA430C15
:1010800003D5FFF7E6FDFFF780FFF0BCBDE8008C5D
:101090002DE9804C9A46934670B491E8380007C811
:1010A00010F0804F08BF13F0804F03D100F005F817
:1010B000FFF76BFFF0BCBDE8008C20F07F4780EAB3
:1010C000030023F07F4C07EB0C03A3F57C5300F0E7
:1010D0000040A3F1FE0392F0000F00F0B38095F002
:1010E000000F00F077802DE901494FEA11404FEAE7
:1010F000144621EA004800FB06FC24EA064708FBE8
:1011000006F607FB08F800FB07F718EB06484CEB60
:10111000164C4FEA124B18EB07484FEA15464CEBBA
:10112000174022EA0B4E0BFB06FC25EA06470EFB96
:1011300006F607FB0EFE0BFB07F71EEB064E4CEB0D
:10114000164C4FF000061EEB074E4CEB174B18EBFE
:101150000B0840F1000018EB0E0B58EB000840F1B3
:1011600000008F1A4FF000013CBFC943661B14BF3B
:10117000B5EB040C00213CBFC943F61B4FEA1744F2
:101180004EEA8E0E27EA04454FEA1C4704FB07622D
:101190002CEA074C05FB07F70CFB05F604FB0CFCDF
:1011A00016EB074642EB174216EB0C4642EB1C428D
:1011B0001BEB060658EB0202414146EA9E0601D5AA
:1011C000BDE80189B619524141EB0101A3F10103C8
:1011D000BDE801894FEA14454FEA114724EA054664
:1011E00021EA074C05FB07F406FB07F70CFB06F1A9
:1011F00005FB0CFC11EB074144EB17444FEA124787
:1012000011EB0C4144EB1C4422EA074C05FB07F2AE
:1012100006FB07F70CFB06F605FB0CFC16EB074676
:1012200042EB174216EB0C4642EB1C456A1854F190
:10123000000148BF7047B619524141EB0101A3F1CB
:101240000103704795F0000F37D04FEA11424FEA83
:10125000144721EA024624EA074C02FB07F106FB89
:1012600007F70CFB06F402FB0CFC14EB074441EB04
:1012700017414FEA154714EB0C4441EB1C4125EA9A
:10128000074C02FB07F506FB07F70CFB06F602FB13
:101290000CFC16EB074645EB174516EB0C4645EBE9
:1012A0001C42121951F1000148BF7047B619524152
:1012B00041EB0101A3F1010370474FEA14454FEAE6
:1012C000114724EA054621EA074C05FB07F106FB16
:1012D00007F70CFB06F24FF0000605FB0CFC12EBC7
:1012E000074241EB174112EB0C4251EB1C4148BF46
:1012F0007047921841EB0101A3F10103704700BF51
:10130000FEE7000000B585B00221094800F090F822
:1013100060B10421064800F037F80421044800F0C9
:1013200017F86A460021024800F012F905B000BD26
:101330000064004010B50121044800F079F818B1AC
:101340000121024800F020F810BD000000640040B8
:1013500000220C4B994202D10023836111E0C1F3BA
:10136000130201F000730BB1C2600AE001F0806368
:101370000BB1026105E001F000630BB1826000E097
:10138000426070477000F030B1F5007F3AD00FDC5A
:10139000202928D006DC01291CD004291DD00829C9
:1013A00040D11DE0402921D0B1F5807F3AD126E01F
:1013B000B1F5004F31D006DCB1F5806F25D0B1F525
:1013C000006F2FD124E0B1F5803F12D0B1F5003F7E
:1013D00028D111E0154A826025E00822C26022E08F
:1013E0001022C2601FE0082202611CE0102202618C
:1013F00019E00822426016E01022426013E0042245
:10140000426010E0042242600DE0042242600AE0E3
:10141000002282610422426005E0002282610422EF
:10142000426000E000BF00BF704700000101010002
:1014300070B504460D46002660692840002871D02A
:10144000B5F5807F5CD010DC082D35D006DC012D91
:1014500020D0022D24D0042D72D127E0102D31D0C0
:10146000202D35D0402D6BD138E0B5F5004F60D040
:1014700009DCB5F5007F49D0B5F5806F4CD0B5F5E6
:10148000006F5DD14FE0B5F5803F2DD0B5F5003F41
:1014900056D12FE0A0682D4900F0D2F8064651E061
:1014A000E068032100F0CCF806464BE0E068082134
:1014B00000F0C6F8064645E0E068102100F0C0F8EC
:1014C00006463FE02069032100F0BAF8064639E0FD
:1014D0002069082100F0B4F8064633E020691021A5
:1014E00000F0AEF806462DE06068082100F0A8F88C
:1014F000064627E06068102100F0A2F8064621E0C9
:10150000A069012100F09CF806461BE0A0690221B9
:1015100000F096F8064615E0A069042100F090F866
:1015200006460FE00FE0A069702100F089F806463A
:1015300008E06068042100F083F8064602E0FFE757
:10154000002600BF00E00026304670BD010101000A
:1015500010B500F5D87303EB01131B6803F0040307
:101560001372137A53B900F5D87303EB01131B6898
:1015700040F2FF7404EA5353136009E000F5D87396
:1015800003EB01131B686FF0604404EAD30353605C
:1015900000F5D87303EB01131B6803F002035372C9
:1015A00000F5D87303EB01135B6803F00F0393722C
:1015B00000F5D87303EB01135B681B0AD37400F5C5
:1015C000D87303EB01139B68D37200F5D87303EB58
:1015D00001139B681C0A147300F5D87303EB011305
:1015E0009B681C0C547300F5D87303EB01139B68C4
:1015F0001B0E937300F5D87303EB0113DB68D373F1
:1016000000F5D87303EB0113DB681C0A147400F5B2
:10161000D87303EB0113DB681C0C547400F5D8730A
:1016200003EB0113DB681B0E937421B9C36843F00D
:101630002003C36003E0036943F02003036110BD8E
:101640000246002002EA01030BB1012000E0002065
:10165000704770472DE9FF4704460E4615469846E9
:10166000DDE90C9762A103C9CDE900014FF0000A42
:10167000614884421DD0614884421AD06048844247
:1016800017D06048844214D05F48844211D05F482C
:1016900084420ED05E4884420BD05E48844208D01B
:1016A0005D48844205D05D48844202D05C48844253
:1016B0003CD15148844207D10121084600F0D2F9BB
:1016C00041208DF8040036E04C48844207D10121C6
:1016D000022000F0C7F942208DF804002BE04848B2
:1016E000844207D10121042000F0BCF943208DF889
:1016F000040020E04348844207D10121082000F083
:10170000B1F944208DF8040015E03F48844207D128
:101710000121102000F0A6F945208DF804000AE010
:1017200040A1494800F044FABDE8FF8747A1464878
:1017300000F03EFAF8E76A4648A1434800F038FA5C
:1017400002960CE006F0010020B1524644A13E484A
:1017500000F02EFA0AF1010000F0FF0A7610002EC8
:10176000F0D12DB1012D03D0022D01D0032D02D1D6
:101770008DF80C5004E035A1334800F019FAD3E796
:10178000B8F1000F02D0B8F1010F02D18DF80E8030
:1017900004E02EA12C4800F00BFAC5E7B9F1000FC8
:1017A00005D0B9F1010F02D0B9F1020F02D18DF8C5
:1017B0000F9004E025A1244800F0FAF9B4E72FB116
:1017C000012F03D0022F01D0032F02D18DF80D700D
:1017D00004E01EA11C4800F0EBF9A5E702A9204691
:1017E00000F048F820A1184800F0E2F900BF9BE79C
:1017F0004750494F00000000000002400004024032
:1018000000080240000C0240001002400014024098
:1018100000180240001C0240002002400024024048
:10182000002802404750494F5F496E69745F455236
:10183000522C20706C6561736520636F6E6E6563FA
:101840007420786A630D0A00001001404750494F28
:101850005F496E69745F4552520D0A0025732C0072
:1018600050696E25642C0000496E69745F4F6B0DE2
:101870000A000000F0B50A4600210023002400BF42
:101880003DE0012505FA01F3156805EA03049C42D1
:1018900034D105684F000326BE40B5430560157975
:1018A0004E00B5400668354305601579012D02D01C
:1018B0001579022D16D185684F000326BE40B54329
:1018C000856055794E00B54086683543856045682A
:1018D00001268E40B5434560456896798E40B6B284
:1018E00035434560C5684F000326BE40B543C5601B
:1018F000D5794E00B540C6683543C560491C1029EE
:10190000BFD3F0BDF0B5002300244D07ED0E02FA61
:1019100005F3CE1000F1200555F826504E07F70EBE
:101920000F26BE40B543CF1000F1200646F82750E1
:10193000CE1000F1200555F8265045EA0304CE10DC
:1019400000F1200545F82640F0BD41837047018332
:10195000704700BFFEE700001CB5032001210023F3
:101960000A46CDE900100F210348FFF773FE0F214F
:101970000148FFF7ECFF1CBD0008024070B50446AB
:101980000D460F480088A84214D30E48008838B18D
:1019900021460D48FFF7D9FF00200A49088006E0DC
:1019A00021460948FFF7D3FF01200649088000209F
:1019B0000349088002480088401C0149088070BD26
:1019C000180000201A0000200008024000BFFEE7B7
:1019D0007047000070B5002100230F22C4781CB3AB
:1019E000174C246804F4E064C4F5E064C4F30721F0
:1019F000C1F10404E3B20A4144789C40E1B2847826
:101A0000144021430C07210E0E4C057861550478D3
:101A100004F01F050124AC4005786D11AD0005F1FF
:101A2000E025C5F8004109E0047804F01F05012411
:101A3000AC40054D0678761145F8264070BD000093
:101A40000CED00E000E400E080E100E00249014329
:101A5000024A1160704700000000FA050CED00E03A
:101A60007047000029B1064A12680243044B1A600D
:101A700004E0034A12688243014B1A607047000079
:101A80003038024029B1064A12680243044B1A60FA
:101A900004E0034A12688243014B1A607047000059
:101AA0004038024029B1064A12680243044B1A60CA
:101AB00004E0034A12688243014B1A607047000039
:101AC00044380240F0B500210022002402250026FF
:101AD0000223324F3F6807F00C0121B1042905D0E1
:101AE000082937D105E02E4F076036E02D4F0760FB
:101AF00033E02A4F3F1F3F68C7F38056274F3F1FF1
:101B00003F6807F03F036EB1264FB7FBF3F7DFF8EE
:101B10008CC0ACF1040CDCF800C0CCF3881C07FBD3
:101B20000CF40CE01E4FB7FBF3F7DFF870C0ACF11C
:101B3000040CDCF800C0CCF3881C07FB0CF4174F36
:101B40003F1F3F68C7F301477F1C7D00B4FBF5F7DB
:101B5000076002E0124F076000BF00BF0F4F3F68F1
:101B600007F0F0010909104F7A5C0768D740476019
:101B70000A4F3F6807F4E051890A0B4F7A5C4768C7
:101B8000D7408760054F3F6807F46041490B064F17
:101B90007A5C4768D740C760F0BD00000838024053
:101BA0000024F40000127A001C000020704700009E
:101BB0000FB4F0B52DED028B85B007460EA800904E
:101BC000BAE00D9800785C281CD10D98401C0D904F
:101BD00000786E2809D072280FD10D21384600F008
:101BE000BBF80D98401C0D900BE00A21384600F020
:101BF000B3F80D98401C0D9003E00D98401C0D901B
:101C000000BF99E00D98007825287DD10D98401CE3
:101C10000D90007858285CD064281AD0662835D0FA
:101C2000732876D1009810C800900BE021783846D0
:101C300000F092F800BF0021384600F08EFB00282B
:101C4000F9D1641C20780028F0D10D98401C0D902B
:101C500063E0009820C800900A2201A9284600F0FD
:101C600059FC01AC0BE02178384600F075F800BF54
:101C70000021384600F071FB0028F9D1641C20785F
:101C80000028F0D10D98401C0D9046E00098C01D32
:101C900020F007000090B0EC028B009053EC182B62
:101CA0002BA101A8FEF7F0FA01AC0BE02178384631
:101CB00000F052F800BF0021384600F04EFB00282B
:101CC000F9D1641C20780028F0D10D98401C0D90AB
:101CD00023E0009840C8009032461EA101A8FEF7FC
:101CE000D3FA01AC0BE02178384600F035F800BF9C
:101CF0000021384600F031FB0028F9D1641C20781F
:101D00000028F0D10D9801E008E002E0401C0D90A1
:101D100003E00D98401C0D9000BF0DE00D9810F8E9
:101D2000011B0D90384600F017F800BF002138461F
:101D300000F013FB0028F9D10D98007800287FF4FB
:101D400040AF05B0BDEC028BF0BC5DF814FB0000A9
:101D5000256600002558000070B504460D4600BFFA
:101D60004021204600F0F9FA0128F9D12946204601
:101D700000F090FB70BD00000CB5002001900090B9
:101D80003448006840F480303249086000BF314870
:101D9000006800F4003000900198401C0190009809
:101DA00018B90198B0F5A04FF1D12A48006800F4A5
:101DB000003010B10120009001E000200090009858
:101DC000012846D123484030006840F08050214926
:101DD000403108602048006840F440401E490860D7
:101DE0001C48083000681B49083108600846006834
:101DF00040F4004008600846006840F4A0500860C5
:101E00001648091F0860081F006840F08070091F0D
:101E1000086000BF0F48006800F000700028F9D08B
:101E200040F205700E4908600A480830006820F04A
:101E300003000849083108600846006840F00200C5
:101E4000086000BF03480830006800F00C00082854
:101E5000F8D10CBD00380240007000400854400723
:101E6000003C02400448006820B103480068401E5E
:101E7000014908607047000014000020094800680C
:101E80000949B0FBF1F0401E4FF0E021486100200D
:101E90008861062008610846006920F00100086199
:101EA000704700000000002040420F0010B51548A8
:101EB000006840F47000134908601348006840F05F
:101EC00001001149086000200F49083108600E48E0
:101ED00000680E4908400C4908600D48091D08605B
:101EE000081F006820F48020091F086000200649B0
:101EF0000C310860FFF740FF4FF000600149803966
:101F0000086010BD88ED00E000380240FFFFF6FEDB
:101F1000103000240EB515A207CA8DE80700FFF7A0
:101F2000C5FF4FF4A060FFF791FDFFF7A7FF4FF447
:101F3000E13000F01BF94FF4E13000F07FF90921A6
:101F400042F2CF0000F030F8092142F2CF0000F059
:101F500065F86A4608A10B48FFF72AFEFFF7FCFC6C
:101F60004FF4FA7000F0B4FA0EBD000068656968BD
:101F70006569686569000000726561647920257390
:101F8000200D0A000010014010B50121880700F063
:101F900082F840B10121880700F06EF84FF4FA7121
:101FA0000220FFF7EBFC10BD7FB505460C46012172
:101FB0000846FFF767FD0295ADF804400020ADF834
:101FC0000C00ADF8060001A94FF0804000F07EF84B
:101FD00001221146900700F06FF81C208DF80000D8
:101FE00000208DF8010001208DF802008DF803001B
:101FF0006846FFF7EFFC0121880700F040F87FBD3D
:1020000010B50121044800F046F818B1012102483A
:1020100000F032F810BD0000000400407FB5054616
:102020000C4601210220FFF72DFD0295ADF804407A
:102030000020ADF80C00ADF8060001A90D4800F035
:1020400045F8012211460B4800F036F81D208DF8A6
:10205000000000208DF801008DF8020001208DF8AD
:1020600003006846FFF7B6FC0121024800F007F8BC
:102070007FBD000000040040CA430282704721B1C6
:10208000028842F00102028004E002884FF6FE73EB
:102090001A400280704730B5024600200023002419
:1020A000158A05EA0103958905EA010413B10CB10B
:1020B000012000E0002030BD1AB183890B438381E9
:1020C00002E083898B4383817047000000220288ED
:1020D000184B98420ED0184B98420BD0B0F1804F5D
:1020E00008D0164B984205D0154B984202D0154B9C
:1020F000984204D14FF68F731A404B881A43124B03
:10210000984207D0114B984204D04FF6FF431A4033
:102110000B891A4302804B68C3620B880385054B09
:10212000984202D0044B984201D18B7A0386012356
:102130008382704700000140000401400004004019
:1021400000080040000C0040001000400014004057
:1021500010B540F22551044800F0FFF840F2255137
:10216000014800F0DFF810BD0010014010B588B044
:10217000044601210846FFF775FC01211020FFF7F6
:1021800091FC072209212448FFF7BCFB07220A2102
:102190002148FFF7B7FB4FF4C060069002208DF88E
:1021A0001C0000208DF81E0001208DF81F00022069
:1021B0008DF81D0006A91848FFF75CFB029400206B
:1021C000ADF80C00ADF814000C20ADF812000020A2
:1021D000ADF81000ADF80E0002A9104800F0F0F8BC
:1021E00025208DF8040001208DF8070003208DF8CC
:1021F000050000208DF8060001A8FFF7EBFB012287
:1022000040F22551054800F0B5F80121034800F0DF
:1022100098F808B010BD0000000002400010014016
:1022200010B540F22551044800F097F840F22551CE
:10223000014800F077F810BD0044004010B588B0A8
:10224000044601210846FFF70DFC01214804FFF771
:1022500019FC072202212348FFF754FB0722032120
:102260002048FFF74FFB0C20069002208DF81C0041
:1022700000208DF81E0001208DF81F0002208DF82F
:102280001D0006A91748FFF7F5FA02940020ADF8E3
:102290000C00ADF814000C20ADF812000020ADF8D1
:1022A0001000ADF80E0002A90F4800F089F82620B2
:1022B0008DF8040001208DF8070003208DF805003B
:1022C00001208DF8060001A8FFF784FB012240F2EF
:1022D0002551054800F04EF80121034800F031F87F
:1022E00008B010BD000002400044004010B540F2AC
:1022F0002551044800F031F840F22551014800F022
:1023000011F810BD0048004010B540F225510448B6
:1023100000F023F840F22551014800F003F810BD09
:102320000014014010B50022002340F66A14A142B7
:1023300000D100BF0A1201249440A3B2DC43048000
:1023400010BD21B1828942F40052828104E0828969
:102350004DF6FF731A408281704702460020B1F5A6
:10236000007F00D100BF13880B400BB1012000E0BB
:1023700000207047F0B50346002400260025002009
:1023800040F66A17B94200D100BF1846C1F34214A3
:1023900001F01F06012707FA06F5012C01D10C30C8
:1023A00004E0022C01D1103000E014301AB10768AB
:1023B0002F43076002E00768AF430760F0BD0000ED
:1023C0002DE9FF4705460E460024A14600BFA04662
:1023D000B08900B100BF2C8A24F44054F088044333
:1023E0002C82AC8941F20C608443B0883189084367
:1023F000718908430443AC81AC8A24F44074B089E9
:102400000443AC826846FFF75DFB2048854202D05A
:102410001F48854202D1DDF80C9001E0DDF80890FC
:10242000A88900F4004040B109EBC90000EB091095
:1024300031684900B0FBF1F707E009EBC90000EB98
:10244000091031688900B0FBF1F76420B7FBF0F0A8
:1024500004012009642101FB1078A88900F40040E0
:1024600040B1322000EBC800B0FBF1F000F00700F3
:10247000044308E0322000EB08106421B0FBF1F0C7
:1024800000F00F0004432C81BDE8FF8700100140DD
:1024900000140140C1F308028280704700BFFEE7CC
:1024A00003B401984100009850EAC12018BF0420ED
:1024B0004A0D18BF40F0010040F2FF72B2EB515FCD
:1024C00008BF40F00200012808BF052002B0704795
:1024D00000B970474FF47A7141430D4A11600021F1
:1024E0004FF0E02291611146096941F0010111614B
:1024F00000BF074909680029FBD14FF0E0210969B5
:1025000021F001014FF0E022116100BFE1E700007E
:1025100014000020F0B503460C4615462146002263
:1025200000260A2D03D0002008702046F0BD33B9E4
:10253000302001F8010B002008700846F6E7002B58
:1025400003DA2D2001F8010B5B420B480DE093FBF1
:10255000F0F202B936B102F1300701F8017B02FB5B
:10256000103301260A2790FBF7F00028EFDC00204B
:1025700008700846DAE7000040420F00FFF7CAFC87
:1025800007E0012203A10648FFF712FB6420FFF7D2
:102590009FFFF6E774696D653A25640D0A00000037
:1025A0000010014010B500290AD00878002807D093
:1025B00005487844FEF794FA002801D0002010BDA9
:1025C0000248784410BD00000A010000020100002A
:1025D0004FF04070E1EE100A7047FDF7FEBF30315A
:1025E000323334353637383941424344454640303A
:1025F00058003031323334353637383961626364EC
:10260000656640307800000002400000000000A035
:102610000000000005400000000000C800000000AD
:102620000C4000000000409C000000001940000029
:102630000020BCBE0000000034400000BFC91B8E5B
:1026400000000004B5400000504BCFD06607E2CF39
:10265000010000006C4100003E8251AADFEEA73469
:1026600001000000D9420000DCB5A0E23A301F971B
:10267000FFFFFFFFB4450000FD25A0C8E9A3C14F3F
:10268000FFFFFFFFFF3F0000000000800000000090
:10269000FF3F00000000008000000000D826000876
:1026A000000000202C000000C401000804270008DE
:1026B0002C00002064060000E00100081C0000005F
:1026C00043000000F8FFFFFF0C0000000E000000B8
:1026D0000F0000002E000000007A030A0000000036
:1026E00000000000010203040607080900000000C2
:1026F00000000000000000000102030401020304C6
:0427000006070809B7
:040000050800018965
:00000001FF
