:020000040800F2
:10000000080700204902000869190008ED180008D7
:1000100065190008B5150008C12800080000000097
:100020000000000000000000000000009B1C000811
:10003000B915000800000000F9190008D11F0008D8
:1000400063020008630200086302000863020008FC
:1000500063020008630200086302000863020008EC
:1000600063020008630200086302000863020008DC
:1000700063020008630200086302000863020008CC
:1000800063020008630200086302000863020008BC
:1000900063020008630200086302000863020008AC
:1000A000630200086302000863020008630200089C
:1000B00085210008FD210008630200086302000892
:1000C000630200086302000863020008630200087C
:1000D000630200087D250008492600081127000852
:1000E000630200086302000863020008630200085C
:1000F000630200086302000863020008630200084C
:10010000630200086302000863020008630200083B
:10011000630200086302000863020008630200082B
:10012000630200086302000863020008630200081B
:10013000630200086302000863020008630200080B
:1001400063020008630200086302000863020008FB
:100150006302000863020008630200082D270008FC
:1001600063020008630200086302000863020008DB
:1001700063020008630200086302000863020008CB
:10018000630200086302000800F002F800F04CF877
:100190000AA090E8000C82448344AAF10107DA45E2
:1001A00001D100F041F8AFF2090EBAE80F0013F0E8
:1001B000010F18BFFB1A43F0010318476C2F000012
:1001C0008C2F0000103A24BF78C878C1FAD85207A3
:1001D00024BF30C830C144BF04680C6070470000C1
:1001E0000023002400250026103A28BF78C1FBD840
:1001F000520728BF30C148BF0B607047662902F024
:100200003287782900F08880002070471FB502F0FF
:1002100025FF00F037FB04000020002102F09AFCCB
:10022000E0601FBD10B510BD00F02CFC1146FFF7BB
:10023000EDFF02F07BFC00F04AFC03B4FFF7F2FF95
:1002400003BC00F08DFC00000948804709480047C6
:10025000FEE7FEE7FEE7FEE7FEE7FEE7FEE7FEE776
:10026000FEE7FEE704480549054A064B70470000D3
:100270001920000889010008080100200807002053
:1002800008030020080300200FB41CB5074B06AA82
:100290007B4469460090059800F0DBFA002069462F
:1002A00000F0EAFA1CBC5DF814FB0000E505000054
:1002B0002DE9F0410E460446002020622046E16808
:1002C000884730B3252805D0D4E901219047206A1A
:1002D000401CF2E7E168204600278847050018D057
:1002E000A5F14100192802D820354FF400673246A5
:1002F000294620462760FFF781FF40B1012804D03E
:10030000F61D26F007060836D8E7361DD6E728463C
:10031000DAE7206ABDE8F08170B504460D46214653
:100320001068AFF300802188090502D50F4A7A448E
:1003300002E00E4A7A440E32002104F1240305E063
:1003400000F00F060009965D5E54491C0028F7D1A5
:1003500020780023000704D5702D02D009B10223B4
:1003600011322046BDE8704000F005B8382D00007D
:100370007047704770472DE9F0470D469946924601
:10038000044600F124080168880604D5E06921F0DC
:100390001001216000E00120A84201DD471B00E0C0
:1003A0000027A1697A1902EB0900081AA0612078D8
:1003B000C00602D42046AFF30080002608E0D4E94E
:1003C00001211AF806009047206A401C761C206222
:1003D0004E45F4DB2078C0060AD52046AFF30080F6
:1003E00006E0D4E9012130209047206A401C2062B9
:1003F000381EA7F10107F4DC07E0D4E9012118F861
:1004000005009047206A401C2062281EA5F10105C6
:10041000F3DC2046AFF300802078000602D50220EE
:10042000BDE8F0870120FBE770472DE9FF4F0C4640
:100430001E464FF0FF378BB0D2E90001DDF8608037
:100440000A908A46C1F30A5505B93D46002108467F
:100450004FF00000BAF1000F00F4400005DA00EBA5
:1004600080004FF4400101EA50004FEA9059B9F181
:10047000010F00DDB9460A9850EA4A000ED044F652
:100480001050A5F2FF3545432F14B8F1000F1ED0D0
:100490007542291E1EDDC9F100021CE0B8F1010FF2
:1004A0004FF0000001D0302103E0F24305E0215479
:1004B000401CB042FBDB30460022002121540B9946
:1004C000C1F80880C1E900200FB0BDE8F08FBD1B66
:1004D0006D1CDEE74A4600DA694206A800F05CFAC5
:1004E00006AB93E8070003AB83E8070050460A9980
:1004F00000F03DFB8DE80700A0F500501F3800908C
:100500000398002D0ADD42F21F014A4608440023E9
:1005100003A90390684600F0A6FD09E0A0F500508D
:100520004A461F38002303A90390684600F0B0FD37
:100530008DE807000004000C03D04FF0FF304108A5
:1005400000E01046B8F1000F03D0002200921546DB
:100550001EE0751E05D400F099F9303262556D1E0B
:10056000F9D5B3460122084302D000227F1C04E0E3
:100570002078302801D100227F1E002A099784D0DC
:100580001DE0112D07DA00F081F9303262556D1C43
:1005900050EA0102F5D1084302D00098C8B10EE03C
:1005A0000021681E05E0235C625C63542254401EF7
:1005B000491C8142F7DBAB46A81B401E0990002076
:1005C00004F80B000B98099AC0F80880C0E9002BCA
:1005D0007AE711264FF0000857E72DE9F04F8846DB
:1005E0000446D21D22F0070191B0D1E90001CDE906
:1005F0000A0102F067F902460B98C00F01D02D20C6
:1006000007E02068810701D52B2002E0202101EAC4
:10061000C000032A099001D0072A05DB03464146A2
:10062000204600F079F90BE12078800601D5E069D9
:1006300000E00620B8F1650F814606D0B8F1660FDC
:1006400018D0B8F1670F70D131E00020B9F1110F67
:10065000009001DB112301E009F101030AAA01A9BD
:100660000CA8FFF7E2FEDDE90C70002609F1010598
:10067000834647E001204B4600904FF000470AAA0E
:1006800001A90CA8FFF7D1FEDDE90DB00C995D467C
:10069000002610B909F101000D18B9EB050003D4CB
:1006A000C0F1FF3609F10105A5EB09002BE0B9F116
:1006B000010F01DA4FF001090020B9F1110F00908C
:1006C000484601DD112300E003460AAA01A90CA84F
:1006D000FFF7ABFEDDE90C704D460026834620781F
:1006E00000070AD4AB4500DA5D4601A8012D04DD00
:1006F000411911F8011C302907D04F4502DA17F1D2
:10070000040F04DA012082460FE06D1EEEE7002F91
:1007100002DCED1B3E4403E0781CA84200DD7D1C9A
:10072000B81B00F1010A4FF000472078000703D4FE
:10073000AA4501DB4FF0FF3A0021B7F1004F0DF160
:1007400043088DF8431024D002202B23002F01DA18
:100750007F422D230A21021EA0F1010000DC5FB1BF
:1007600097FBF1FC97FBF1F201FB1C7C17460CF1A7
:10077000300C08F801CDEEE7A8F1010003702188E4
:10078000090501D5452100E06521A0F1010800F827
:10079000011C09980FA9A1EB0807FF1D00B101205A
:1007A000411901EBEA70A1693844081A401EA061A2
:1007B0002078C00602D42046AFF30080099828B103
:1007C000D4E901219047206A401C20622078C006AD
:1007D00022D52046AFF300801EE0002E04DBB34597
:1007E00002DD01A8805D00E03020D4E901219047BE
:1007F000206A401C2062761CAAF101005FEA000A10
:100800000AD100F03FF8C0680168405CD4E90121DA
:100810009047206A401C2062281EA5F10105DCDCFF
:1008200007E0D4E9012118F8010B9047206A401C29
:100830002062381EA7F10107F3DC2046AFF30080E9
:10084000032011B041E6000001694A1C02610878EA
:10085000704700B58FB0CDE9013100210591054900
:100860007944CDE9031011466846FFF721FD0FB02A
:1008700000BD0000E5FFFFFF0A6802F8010B0A60F7
:100880007047000000487047C800002030B5B0F144
:100890000A024FEA900E71F100034EEA817EB0EB3E
:1008A0000E0061EB91014FEA101E4EEA017E10EB43
:1008B0000E0041EB11114FEA102E4EEA016E10EBC3
:1008C0000E0041EB11214FEA104E4EEA014E10EBA3
:1008D0000E0041EB1141401841F100014FEAD000F8
:1008E00040EA41704FEAD10110EB80054FEA8104E4
:1008F00044EA907444EB01046D1944EB0404521B68
:10090000A3414FF0000348BF0A3200D530BD401C60
:1009100041F1000130BD00002DE9F0411F460446C1
:1009200003260168072A01F4006004DB08B116A55C
:1009300005E016A503E008B115A500E015A521F016
:1009400010002060A069C01EA0610FB1401EA06110
:100950002046AFF300804FB1D4E9012138469047DB
:10096000206A401C2062C01C206206E0206AFAE770
:10097000D4E9012115F8010B9047761EF8D22046E4
:10098000AFF30080BDE8F0814E414E006E616E0015
:10099000494E4600696E66002DE9F04781461646CD
:1009A0008AB0354878440DC88DE80D003248784447
:1009B000801C03AC0DC884E80D0041F69B30084450
:1009C000372190FBF1F290FBF1F5A5F1800501FBD9
:1009D00012041B3C02D56442012000E00020DFF835
:1009E00098A080460027FA44AAF1BE0A0EE0E0076C
:1009F0000AD03246684607EB470101230AEB810122
:100A000000F046FB8DE8070064107F1C002CEED13F
:100A1000194F7F44AE3F19E0E80715D007EB0410EB
:100A20000DF1180A90E80E008AE80E00C068F04246
:100A300001D1981908903246012306A903A800F0B5
:100A400027FB03AB83E807006D10641C002DE3D186
:100A50004FF0010332466946B8F1000F03A802D0F7
:100A600000F001FB01E000F013FBC9E90001C9F847
:100A700008200AB0BDE8F0876827000000487047EA
:100A8000A80000207546FFF7F9FFAE46050069464D
:100A9000534620F00700854618B020B5FFF7E2FB6B
:100AA000BDE820404FF000064FF000074FF000086F
:100AB0004FF0000B21F00701AC46ACE8C009ACE8F0
:100AC000C009ACE8C009ACE8C0098D46704710B554
:100AD0000446AFF300802046BDE81040FFF7ADBBF1
:100AE0004FF0013C50F8042B51F8043B9A4221D1BD
:100AF000A2EB0C03934313EACC1317D150F8042B49
:100B000051F8043B9A4215D1A2EB0C03934313EA2C
:100B1000CC130BD150F8042B51F8043B9A4209D165
:100B2000A2EB0C03934313EACC13DBD04FF000008D
:100B3000704700BFD01A01BAB1FA81F101F0180173
:100B400022FA01F0CB40C1F12001DBB2C0B2C01AE1
:100B50002CFA01F3D11A914311EAC311E6D170477F
:100B600001491820ABBEFEE72600020070475FEA8D
:100B7000400C08BF91F0000F4FEA8C234FEAC122CE
:100B800043EA51514FEA1C5018BF00F5F0404FEABC
:100B9000300018BF41F000415FEA6C5C00F0298032
:100BA000BCF1FF3F08BF40F080407047130C06BF08
:100BB00012044FF0100C4FF0000C130E04BF120281
:100BC0000CF1080C130F04BF12010CF1040C930F6D
:100BD00004BF92000CF1020CD30F04BF52000CF1C1
:100BE000010C11464FF00002A0F11F00A0EB0C0019
:100BF000704711F0004F08BF704731F000413FF4DB
:100C0000D5AF0B0C06BF09044FF0100C4FF0000CD1
:100C10000B0E04BF09020CF1080C0B0F04BF0901F5
:100C20000CF1040C8B0F04BF89000CF1020CCB0FEC
:100C300004BF49000CF1010CCCF12003A0EB0C0027
:100C400022FA03F302FA0CF241EA030100F1010077
:100C5000704720F07F4C80EA030023F07F47ACEB25
:100C6000070303F57C5300F0004003F1FF032DE977
:100C700080494FEA154B09B44FEA144325EA0B4E5D
:100C800024EA03480FF2042606EB132749083E78AE
:100C90005FEA320203FB0667C7F5000707FB06F6AB
:100CA0004FEA54374FEAD64606F1020607FB066CB8
:100CB000CCF1005C4FEA1C472CEA074C07FB06F41A
:100CC0000CFB06F504EB15464FEA961634BF0020E0
:100CD0004FF000404FEAD13706FB07FC4FEA1C4CAF
:100CE0000CFB0BF7D21B03FB0CF761EB07010CFBB2
:100CF0000EF7B0EB074072EB17420CFB08F734BF5E
:100D0000A2EB0742B2EB074261EB17414FEA0C44FA
:100D10004FEA910706FB07FC4FEA1C4C0CFB0BF754
:100D2000B0EBC74072EB573203FB0CF734BFA2EBBA
:100D3000C742B2EBC74261EB57310CFB0EF7B0EB89
:100D4000C70072EB57720CFB08F734BFA2EBC70267
:100D5000B2EBC70261EB5771039F4FEA816141EA31
:100D6000921104EBCC044FEAD1374FEA826206FBC2
:100D700007FC42EA90124FEA80604FEA1C4C0CFBE1
:100D80000BF7D21B03FB0CF761EB07010CFB0EF713
:100D9000B0EB074072EB17420CFB08F734BFA2EB35
:100DA0000742B2EB074261EB17414FEA8C554FEA1D
:100DB000910704EB9C2406FB07FC4FEA1C4C0CFB40
:100DC0000BF7B0EBC74072EB573203FB0CF734BFA5
:100DD000A2EBC742B2EBC74261EB57310CFB0EF7F7
:100DE000B0EBC70072EB57720CFB08F734BFA2EBF5
:100DF000C702B2EBC70261EB577115EB4C254FEA06
:100E0000816141EA92114FEA82624FEAD13742EAA8
:100E1000901206FB07FC44F100044FEA80604FEAA1
:100E20001C4C0CFB0BF7D21B03FB0CF761EB07010F
:100E30000CFB0EF7B0EB074072EB17420CFB08F708
:100E400034BFA2EB0742B2EB074261EB174115EB4F
:100E50001C154FEA813141EA92414FEA823242EA5F
:100E600090424FEA80304FEA0C7644F1000448EAA1
:100E700003434EEA0B484FF0000EB2EB080C71EB47
:100E8000030724BF624639464EEB0E0E4FF0000BAF
:100E90000018524149414BEB0B0BB2EB080C71EBC4
:100EA00003077BF1000B24BF624639464EEB0E0E62
:100EB0004FF0000B0018524149414BEB0B0BB2EBCA
:100EC000080C71EB03077BF1000B24BF6246394627
:100ED0004EEB0E0E51EA020718BF46F0010616EB64
:100EE0000E7655F1000254F1000103D5BDE88901E9
:100EF000BDE80088BDE88901BDE80048B619524147
:100F000041EB0101A3F10103704780807F7E7D7C6E
:100F10007B7A7978777676757473727171706F6E8B
:100F20006E6D6C6C6B6A6A69686867666665646436
:100F3000636362616160605F5F5E5E5D5D5C5C5BC0
:100F40005B5A5A595958585757565655555554542F
:100F5000535352525251515050504F4F4F4E4E4D8D
:100F60004D4D4C4C4C4B4B4B4A4A4A4949494848D9
:100F70004847474747464646454545444444444319
:100F800043434342424242414141002B9C4630D4BC
:100F900077002BD01CB54FEA370703B44FF0100091
:100FA0004FF01001BAF1000F06D0BCF1000FDCBF0A
:100FB00040F0080040F008014FF000000FBCBDE811
:100FC00010400BF1010BBBF1010F08BF5FEA1707DF
:100FD00022BF12F1010211F101014FF0004143F172
:100FE000000300F0004043EA00007047F9D35708BF
:100FF000D0E746EA064613F1400F4FEA16461FDDDA
:1010000013F1200FDFBF16430A46002120335B4255
:10101000BED0C3F1200746EA064602FA07F74FEAB8
:10102000164646EA0706C3F1200722FA03F201FA40
:1010300007F721FA03F14FF0000342EA0702A7E79E
:1010400046EA020646EA06464FEA164646EA010620
:10105000BCBF46EA0646360C4FF000034FF00002D4
:101060004FF0000194E72DE9804C9A46934670B406
:1010700091E8380007C831EA400C48BF34EA430C15
:1010800003D5FFF7E6FDFFF780FFF0BCBDE8008C5D
:101090002DE9804C9A46934670B491E8380007C811
:1010A00010F0804F08BF13F0804F03D100F005F817
:1010B000FFF76BFFF0BCBDE8008C20F07F4780EAB3
:1010C000030023F07F4C07EB0C03A3F57C5300F0E7
:1010D0000040A3F1FE0392F0000F00F0B38095F002
:1010E000000F00F077802DE901494FEA11404FEAE7
:1010F000144621EA004800FB06FC24EA064708FBE8
:1011000006F607FB08F800FB07F718EB06484CEB60
:10111000164C4FEA124B18EB07484FEA15464CEBBA
:10112000174022EA0B4E0BFB06FC25EA06470EFB96
:1011300006F607FB0EFE0BFB07F71EEB064E4CEB0D
:10114000164C4FF000061EEB074E4CEB174B18EBFE
:101150000B0840F1000018EB0E0B58EB000840F1B3
:1011600000008F1A4FF000013CBFC943661B14BF3B
:10117000B5EB040C00213CBFC943F61B4FEA1744F2
:101180004EEA8E0E27EA04454FEA1C4704FB07622D
:101190002CEA074C05FB07F70CFB05F604FB0CFCDF
:1011A00016EB074642EB174216EB0C4642EB1C428D
:1011B0001BEB060658EB0202414146EA9E0601D5AA
:1011C000BDE80189B619524141EB0101A3F10103C8
:1011D000BDE801894FEA14454FEA114724EA054664
:1011E00021EA074C05FB07F406FB07F70CFB06F1A9
:1011F00005FB0CFC11EB074144EB17444FEA124787
:1012000011EB0C4144EB1C4422EA074C05FB07F2AE
:1012100006FB07F70CFB06F605FB0CFC16EB074676
:1012200042EB174216EB0C4642EB1C456A1854F190
:10123000000148BF7047B619524141EB0101A3F1CB
:101240000103704795F0000F37D04FEA11424FEA83
:10125000144721EA024624EA074C02FB07F106FB89
:1012600007F70CFB06F402FB0CFC14EB074441EB04
:1012700017414FEA154714EB0C4441EB1C4125EA9A
:10128000074C02FB07F506FB07F70CFB06F602FB13
:101290000CFC16EB074645EB174516EB0C4645EBE9
:1012A0001C42121951F1000148BF7047B619524152
:1012B00041EB0101A3F1010370474FEA14454FEAE6
:1012C000114724EA054621EA074C05FB07F106FB16
:1012D00007F70CFB06F24FF0000605FB0CFC12EBC7
:1012E000074241EB174112EB0C4251EB1C4148BF46
:1012F0007047921841EB0101A3F1010370472DE9FA
:10130000F04104460D4600260027284600F014F858
:101310000321012000F04FF8064626F4600604F091
:10132000070046EA405703223946012000F0D9F869
:1013300000F030F9BDE8F08170B5044600250026C4
:101340000321022000F037F8054625F47F450120EF
:10135000A040C0B245EA002603223146022000F038
:10136000C0F870BD70B50446002500260321022098
:1013700000F021F80546012C02D145F4000601E0F9
:1013800025F4000603223146022000F0AAF870BDC1
:1013900038B5044600200090012C02D15C2000905A
:1013A00003E000F0F7F85E2000900122694600207B
:1013B00001F06CFB38BD2DE9FC4106460C460020CF
:1013C000019000900027002506F00700402141EA27
:1013D000C000009001226946002001F057FB224620
:1013E000002101A801F052FB00BF05E001A8405D0B
:1013F00000EB0727681CC5B2A542F7DB3846BDE8FD
:10140000FC81000070B50125002401F0B3FA00F062
:101410004EF84FF4FA7001F08FFA01210420FFF723
:10142000CAFF0446224605A1084800F037FC04F034
:101430000F00042800D00025284670BD61643731B4
:1014400039303A307825580D0A000000001001406C
:1014500070B504460025002603210220FFF7ABFFEC
:10146000054625F47F45E0B245EA002603223146D1
:10147000022000F036F870BD2DE9F04104460D461B
:101480000026002703210220FFF795FF064626F0DD
:101490000F0646EAC40005F00701084340F01007B4
:1014A00003223946022000F01CF8BDE8F0811FB588
:1014B00000200090019001208DF80800FF208DF899
:1014C00009008DF80A008DF80B008DF80C008DF8DE
:1014D0000D008DF80E00072202A9684601F0D6FA29
:1014E0001FBDF7B582B0064614460020009001905B
:1014F00003AF254606F00700002141EAC0008DF841
:10150000000005E038780DF805007F1C681EC5B2A4
:10151000002DF7DC621C6946002001F0B7FA05B027
:10152000F0BD000010B500240120FFF71BFF0421CF
:101530000846FFF7E4FE05210420FFF7E0FE062140
:101540000420FFF7DCFE07210420FFF7D8FE00216E
:101550000120FFF791FF04210520FFF7D0FE0521B0
:101560000846FFF7CCFE06210520FFF7C8FE07213D
:101570000520FFF7C4FEF020FFF76AFF044C0322AA
:1015800021460120FFF7ADFF0120FFF701FF10BD4D
:1015900008001000054800BF0549096901F0400135
:1015A00019B1011EA0F10100F6D17047FFFF0F0035
:1015B0000000024000BFFEE7704700002DE9FF4732
:1015C00004460E4615469846DDE90C9762A103C90C
:1015D000CDE900014FF0000A614884421DD0614806
:1015E00084421AD06048844217D06048844214D0A4
:1015F0005F48844211D05F4884420ED05E488442E6
:101600000BD05E48844208D05D48844205D05D48D6
:10161000844202D05C4884423CD15148844207D184
:101620000121084600F0EAF941208DF8040036E077
:101630004C48844207D10121022000F0DFF942200A
:101640008DF804002BE04848844207D10121042092
:1016500000F0D4F943208DF8040020E04348844290
:1016600007D10121082000F0C9F944208DF80400B9
:1016700015E03F48844207D10121102000F0BEF957
:1016800045208DF804000AE040A1494800F006FB1F
:10169000BDE8FF8747A1464800F000FBF8E76A462F
:1016A00048A1434800F0FAFA02960CE006F0010067
:1016B00020B1524644A13E4800F0F0FA0AF1010080
:1016C00000F0FF0A7610002EF0D12DB1012D03D0CD
:1016D000022D01D0032D02D18DF80C5004E035A16C
:1016E000334800F0DBFAD3E7B8F1000F02D0B8F1CD
:1016F000010F02D18DF80E8004E02EA12C4800F0DD
:10170000CDFAC5E7B9F1000F05D0B9F1010F02D04C
:10171000B9F1020F02D18DF80F9004E025A1244801
:1017200000F0BCFAB4E72FB1012F03D0022F01D093
:10173000032F02D18DF80D7004E01EA11C4800F0AB
:10174000ADFAA5E702A9204600F048F820A1184804
:1017500000F0A4FA00BF9BE74750494F000000008B
:10176000000002400004024000080240000C024059
:10177000001002400014024000180240001C024009
:101780000020024000240240002802404750494FF8
:101790005F496E69745F4552522C20706C656173AD
:1017A0006520636F6E6E65637420786A630D0A004E
:1017B000001001404750494F5F496E69745F4552C0
:1017C000520D0A0025732C0050696E25642C000010
:1017D000496E69745F4F6B0D0A000000F0B50A4650
:1017E00000210023002400BF3DE0012505FA01F39C
:1017F000156805EA03049C4234D105684F000326AE
:10180000BE40B543056015794E00B54006683543C6
:1018100005601579012D02D01579022D16D1856844
:101820004F000326BE40B543856055794E00B54054
:10183000866835438560456801268E40B54345601E
:10184000456896798E40B6B235434560C5684F000D
:101850000326BE40B543C560D5794E00B540C66885
:101860003543C560491C1029BFD3F0BDF0B5002336
:1018700000244D07ED0E02FA05F3CE1000F120050D
:1018800055F826504E07F70E0F26BE40B543CF1031
:1018900000F1200646F82750CE1000F1200555F83B
:1018A000265045EA0304CE1000F1200545F82640F5
:1018B000F0BD418370470183704700000148007804
:1018C0007047000024000020004870476800002096
:1018D0000048704778000020014890F900007047E8
:1018E00025000020004870478800002000BFFEE768
:1018F0001CB50320012100230A46CDE900100F2169
:101900000348FFF75BFE0F210148FFF7D4FF1CBD22
:101910000008024070B504460D460F480088A842F2
:1019200014D30E48008838B121460D48FFF7C1FF97
:1019300000200A49088006E021460948FFF7BBFF5E
:1019400001200649088000200349088002480088D9
:10195000401C0149088070BD2000002022000020AA
:101960000008024000BFFEE77047000070B500218C
:1019700000230F22C4781CB3174C246804F4E064DD
:10198000C4F5E064C4F30721C1F10404E3B20A41E1
:1019900044789C40E1B28478144021430C07210E26
:1019A0000E4C05786155047804F01F050124AC4005
:1019B00005786D11AD0005F1E025C5F8004109E09D
:1019C000047804F01F050124AC40054D067876111B
:1019D00045F8264070BD00000CED00E000E400E09A
:1019E00080E100E002490143024A116070470000B3
:1019F0000000FA050CED00E07047000029B1064A2E
:101A000012680243044B1A6004E0034A12688243DE
:101A1000014B1A60704700003038024029B1064A75
:101A200012680243044B1A6004E0034A12688243BE
:101A3000014B1A60704700004038024029B1064A45
:101A400012680243044B1A6004E0034A126882439E
:101A5000014B1A60704700002038024029B1064A45
:101A600012680243044B1A6004E0034A126882437E
:101A7000014B1A60704700004438024029B1064A01
:101A800012680243044B1A6004E0034A126882435E
:101A9000014B1A607047000024380240F0B5002165
:101AA00000220024022500260223324F3F6807F05F
:101AB0000C0121B1042905D0082937D105E02E4FAA
:101AC000076036E02D4F076033E02A4F3F1F3F6825
:101AD000C7F38056274F3F1F3F6807F03F036EB1A3
:101AE000264FB7FBF3F7DFF88CC0ACF1040CDCF841
:101AF00000C0CCF3881C07FB0CF40CE01E4FB7FBB6
:101B0000F3F7DFF870C0ACF1040CDCF800C0CCF3E4
:101B1000881C07FB0CF4174F3F1F3F68C7F30147B2
:101B20007F1C7D00B4FBF5F7076002E0124F0760F1
:101B300000BF00BF0F4F3F6807F0F0010909104FC9
:101B40007A5C0768D74047600A4F3F6807F4E05166
:101B5000890A0B4F7A5C4768D7408760054F3F681A
:101B600007F46041490B064F7A5C4768D740C7606D
:101B7000F0BD0000083802400024F40000127A0092
:101B80002600002021B1028842F04002028004E0D9
:101B900002884FF6BF731A400280704710B50446A2
:101BA0002448844208D101218014FFF767FF0021F7
:101BB000A014FFF763FF3CE01F48844208D10121D5
:101BC0000014FFF73BFF00212014FFF737FF30E040
:101BD0001A48844208D10121C013FFF72FFF0021CA
:101BE000E013FFF72BFF24E01548844208D10121C0
:101BF0004014FFF743FF00216014FFF73FFF18E098
:101C00001048844209D101210805FFF737FF002160
:101C10004FF48010FFF732FF0BE00B48844208D1ED
:101C200001214805FFF72AFF00214FF40010FFF7BC
:101C300025FF10BD0030014000380040003C00404E
:101C40000034014000500140005401400246002091
:101C500013890B400BB1012000E00020704710B544
:101C60000022028802F441520B884C8823438C885E
:101C70002343CC8823430C8923434C8923438C89F9
:101C80002343CC8923431A430280838B4FF2FF7492
:101C9000234083830B8A038210BD70470FB4F0B5D5
:101CA0002DED028B85B007460EA80090BAE00D9886
:101CB00000785C281CD10D98401C0D9000786E288F
:101CC00009D072280FD10D21384600F0BBF80D98CD
:101CD000401C0D900BE00A21384600F0B3F80D9837
:101CE000401C0D9003E00D98401C0D9000BF99E042
:101CF0000D98007825287DD10D98401C0D90007816
:101D000058285CD064281AD0662835D0732876D13C
:101D1000009810C800900BE02178384600F092F847
:101D200000BF0021384600F02AFD0028F9D1641CCC
:101D300020780028F0D10D98401C0D9063E00098A9
:101D400020C800900A2201A9284600F0BBFE01AC81
:101D50000BE02178384600F075F800BF00213846C6
:101D600000F00DFD0028F9D1641C20780028F0D186
:101D70000D98401C0D9046E00098C01D20F0070013
:101D80000090B0EC028B009053EC182B2BA101A813
:101D9000FEF77AFA01AC0BE02178384600F052F8F1
:101DA00000BF0021384600F0EAFC0028F9D1641C8D
:101DB00020780028F0D10D98401C0D9023E0009869
:101DC00040C8009032461EA101A8FEF75DFA01ACA2
:101DD0000BE02178384600F035F800BF0021384686
:101DE00000F0CDFC0028F9D1641C20780028F0D147
:101DF0000D9801E008E002E0401C0D9003E00D9812
:101E0000401C0D9000BF0DE00D9810F8011B0D90C7
:101E1000384600F017F800BF0021384600F0AFFC4C
:101E20000028F9D10D98007800287FF440AF05B064
:101E3000BDEC028BF0BC5DF814FB000025660000D1
:101E40002558000070B504460D4600BF40212046CD
:101E500000F095FC0128F9D12946204600F02CFD20
:101E600070BD00000CB5002001900090344800685F
:101E700040F480303249086000BF3148006800F407
:101E8000003000900198401C0190009818B901980A
:101E9000B0F5A04FF1D12A48006800F4003010B12D
:101EA0000120009001E0002000900098012846D118
:101EB00023484030006840F080502149403108609C
:101EC0002048006840F440401E4908601C48083023
:101ED00000681B49083108600846006840F400406B
:101EE00008600846006840F4A05008601648091FC2
:101EF0000860081F006840F08070091F086000BF7C
:101F00000F48006800F000700028F9D040F205701A
:101F10000E4908600A480830006820F003000849AC
:101F2000083108600846006840F00200086000BF01
:101F300003480830006800F00C000828F8D10CBDF8
:101F4000003802400070004008544007003C024046
:101F5000014908707047000024000020014600205D
:101F600000BF06E051F82020034B43F82020421C1C
:101F7000D0B20428F6DB704768000020014600203C
:101F800000BF06E051F82020034B43F82020421CFC
:101F9000D0B20428F6DB70477800002001490870B1
:101FA00070470000250000200146002000BF0AE025
:101FB00001EBC00292ED000B044A02EBC00282ED7D
:101FC000000B421CD0B20428F2DB704788000020CE
:101FD0000448006820B103480068401E01490860B9
:101FE000704700001C000020094800680949B0FB48
:101FF000F1F0401E4FF0E02148610020886106208A
:1020000008610846006920F001000861704700007F
:102010000000002040420F0010B51548006840F451
:102020007000134908601348006840F0010011492E
:10203000086000200F49083108600E4800680E490A
:1020400008400C4908600D48091D0860081F006819
:1020500020F48020091F0860002006490C31086028
:10206000FFF700FF4FF0006001498039086010BDA4
:1020700088ED00E000380240FFFFF6FE103000243B
:1020800000B587B02AA207CA04AB07C3002000909E
:10209000019002900390FFF7BFFF4FF4A060FFF79D
:1020A000A1FCFFF7A1FF4FF4E13000F075FAFFF754
:1020B000A9F970B921A12648FFF7F0FD07E04FF418
:1020C0007A7000F017FCFFF79DF900B100E0F6E729
:1020D00000BF20A11E48FFF7E1FDFFF723FA2248C9
:1020E000009022480190224802902248039001204B
:1020F000FFF72EFF6846FFF741FF4FF4E13000F095
:10210000B1FA092142F2CF0000F04CF8092142F265
:10211000CF0000F099F904AA17A10D48FFF7BEFD02
:10212000FFF7E6FB4FF4FA7000F0E4FB07B000BDE8
:10213000686569686569686569000000BBF1C8A1E8
:10214000B2BBB5BD2041443731393020210D0A00E2
:1021500000100140BCECB2E2B5BD2041443731393A
:102160003020210D0A0000003EAB0F00CA9D0F0079
:10217000A4A80F00EBA90F00726561647920257394
:10218000200D0A0010B50121880700F09AF940B12E
:102190000121880700F086F94FF4FA710220FFF759
:1021A000B9FB10BD7FB505460C4601210846FFF777
:1021B00035FC0295ADF804400020ADF80C00ADF8F8
:1021C000060001A94FF0804000F096F90122114667
:1021D000900700F087F91C208DF8000000208DF892
:1021E000010001208DF802008DF803006846FFF71A
:1021F000BDFB0121880700F058F97FBD70B52DEDBA
:10220000088B82B00121724800F05BF900287DD074
:1022100001216F4800F046F9FFF750FB002858D025
:102220006C48006900F04000002852D104220021CF
:10223000694800F02BFC6848C07800F08000002856
:1022400047D16548C07800F00700001F6349087057
:10225000084690F90000002823DBFFF739FB5F49AF
:1022600091F9001050F821105B48007800045A4A98
:10227000527840EA0220584A92781043401A58494E
:10228000564A92F9002041F822000846FFF766FE00
:10229000524890F90000FFF781FE0220FFF758FE38
:1022A00017E04D48C2784FA15248FFF7F7FCFFF7FF
:1022B00005FB401CC4B22046FFF74AFEFFF7FEFABA
:1022C0000A2806DB0020FFF743FE4BA14948FFF731
:1022D000E5FCFFF7F3FA022876D1FFF7F5FA054699
:1022E000FFF7FAFA55F820000411204600F0A0FD8F
:1022F00005460E46FFF7F0FA434901EBC00060C007
:10230000FFF7EAFA404901EBC00000E05CE090ED25
:10231000000BB0EE40BAF0EE60BA9FED3C0B53EC10
:10232000102B51EC1B0B00F09BFD41EC1A0B9FEDA9
:10233000390B53EC102B00F023FC41EC190B9FEDF3
:10234000370B53EC102B00F08BFD41EC180B9FED7D
:10235000350B53EC102B00F013FC04460D46FFF731
:10236000BBFA294901EBC00030C00846FFF71CFE4C
:10237000FFF7B8FA0646FFF7AFFA06EBC00090ED9C
:10238000000BB0EE409AF0EE609A9FED280B53ECF4
:10239000102B51EC190B00F0F3FB41EC180BFFF77D
:1023A00093FA0646FFF798FA56F82040FFF794FA9A
:1023B00005468DED008B23462A461EA10D48FFF7EA
:1023C0006DFC0120FFF7C4FD02B0BDEC088B70BDB1
:1023D000000400400000024014000020180000200B
:1023E000380000206572726F723A307825580D0AF5
:1023F0000000000000100140CAA7B0DCA3A1A3A107
:10240000A3A10D0A00000000480000200000000009
:1024100000C2A9400000000000409F4000000000F2
:102420000090BA4000000000FEFF2F4100000000B5
:1024300000408F40494E25642E20307825582D3E8F
:102440002566560D0A0000007FB505460C460121A1
:102450000220FFF7E3FA0295ADF804400020ADF842
:102460000C00ADF8060001A90D4800F045F8012266
:1024700011460B4800F036F81D208DF800000020B2
:102480008DF801008DF8020001208DF803006846E8
:10249000FFF76CFA0121024800F007F87FBD000049
:1024A00000040040CA430282704721B1028842F012
:1024B0000102028004E002884FF6FE731A40028097
:1024C000704730B50246002000230024158A05EA33
:1024D0000103958905EA010413B10CB1012000E064
:1024E000002030BD1AB183890B43838102E08389C8
:1024F0008B4383817047000000220288184B98426A
:102500000ED0184B98420BD0B0F1804F08D0164B2C
:10251000984205D0154B984202D0154B984204D1F1
:102520004FF68F731A404B881A43124B984207D0CC
:10253000114B984204D04FF6FF431A400B891A43BF
:1025400002804B68C3620B880385054B984202D01A
:10255000044B984201D18B7A038601238382704712
:102560000000014000040140000400400008004059
:10257000000C0040001000400014004010B540F274
:102580002551044800F0FBF840F22551014800F0C5
:10259000DBF810BD0010014010B588B004460121E1
:1025A0000846FFF72BFA01211020FFF757FA072200
:1025B00009212348FFF75AF907220A212048FFF78B
:1025C00055F94FF4C060069002208DF81C000020E1
:1025D0008DF81E0001208DF81F0002208DF81D00CF
:1025E00006A91748FFF7FAF802940020ADF80C008E
:1025F000ADF814000C20ADF812000020ADF810006A
:10260000ADF80E0002A90F4800F0ECF825208DF877
:10261000040001208DF807008DF8050000208DF8DA
:10262000060001A8FFF7A2F9012240F22551054852
:1026300000F0B2F80121034800F095F808B010BD91
:10264000000002400010014010B540F2255104483E
:1026500000F095F840F22551014800F075F810BDE2
:102660000044004010B588B0044601210846FFF739
:10267000C5F901214804FFF7D1F9072202212248B8
:10268000FFF7F4F8072203211F48FFF7EFF80C20AB
:10269000069002208DF81C0000208DF81E000120FD
:1026A0008DF81F0002208DF81D0006A91648FFF7BF
:1026B00095F802940020ADF80C00ADF814000C2041
:1026C000ADF812000020ADF81000ADF80E0002A920
:1026D0000E4800F087F826208DF8040001208DF8C0
:1026E00007008DF805008DF8060001A8FFF73EF9F8
:1026F000012240F22551054800F04EF8012103481F
:1027000000F031F808B010BD000002400044004065
:1027100010B540F22551044800F031F840F225513F
:10272000014800F011F810BD0048004010B540F21B
:102730002551044800F023F840F22551014800F0EB
:1027400003F810BD0014014010B50022002340F62C
:102750006A14A14200D100BF0A1201249440A3B21E
:10276000DC43048010BD21B1828942F40052828191
:1027700004E082894DF6FF731A4082817047024659
:102780000020B1F5007F00D100BF13880B400BB1D2
:10279000012000E000207047F0B503460024002629
:1027A0000025002040F66A17B94200D100BF184644
:1027B000C1F3421401F01F06012707FA06F5012CA8
:1027C00001D10C3004E0022C01D1103000E01430B3
:1027D0001AB107682F43076002E00768AF4307603C
:1027E000F0BD00002DE9FF4705460E460024A14636
:1027F00000BFA046B08900B100BF2C8A24F4405429
:10280000F08804432C82AC8941F20C608443B08888
:1028100031890843718908430443AC81AC8A24F4AC
:102820004074B0890443AC826846FFF737F920480A
:10283000854202D01F48854202D1DDF80C9001E0AC
:10284000DDF80890A88900F4004040B109EBC90008
:1028500000EB091031684900B0FBF1F707E009EB24
:10286000C90000EB091031688900B0FBF1F7642062
:10287000B7FBF0F004012009642101FB1078A8895E
:1028800000F4004040B1322000EBC800B0FBF1F092
:1028900000F00700044308E0322000EB0810642138
:1028A000B0FBF1F000F00F0004432C81BDE8FF877E
:1028B0000010014000140140C1F3080282807047FB
:1028C00000BFFEE703B401984100009850EAC12020
:1028D00018BF04204A0D18BF40F0010040F2FF72FB
:1028E000B2EB515F08BF40F00200012808BF05208D
:1028F00002B0704700B970474FF47A7141430D4AF6
:10290000116000214FF0E02291611146096941F008
:102910000101116100BF074909680029FBD14FF08F
:10292000E021096921F001014FF0E022116100BFAF
:10293000E1E700001C00002000B970470C49086066
:1029400000214FF0E02291611146096941F0010137
:10295000116100BF064909680029FBD14FF0E02151
:10296000096921F001014FF0E022116100BFE4E7A5
:102970001C00002000B587B0022001210023024680
:10298000CDE90010E0212A48FEF718FE0522114685
:102990002748FEF76BFF052207212548FEF766FF53
:1029A000052206212248FEF761FF40212048FEF75C
:1029B00082FF0220012100230A46CDE900101021E8
:1029C0001B48FEF7FBFD10211948FEF774FF19485C
:1029D000FFF7E4F801210803FFF740F8002115484C
:1029E000FFF7D0F80020ADF808004FF48270ADF882
:1029F0000A000020ADF80E00ADF81000ADF80C0094
:102A00004FF40070ADF812002820ADF8140000203B
:102A1000ADF816000720ADF8180002A90548FFF729
:102A20001EF901210348FFF7ADF807B000BD000013
:102A3000000002400030014070B504460026002529
:102A400005E0681C80B20546FF2800D105E00221A0
:102A50000D48FFF7FBF80028F3D000BF7F250A4898
:102A6000848105E0681C80B20546FF2800D105E09E
:102A700001210548FFF7EAF80028F3D000BF02481B
:102A80008089C6B2304670BD0030014070B5044642
:102A90000D46164610210A48FEF70BFF05E0287880
:102AA000FFF7CAFF2070641C6D1C301EA6F10101E7
:102AB0008EB2F4D110210248FEF7FDFE70BD000079
:102AC00000000240F0B503460C46154621460022A0
:102AD00000260A2D03D0002008702046F0BD33B92F
:102AE000302001F8010B002008700846F6E7002BA3
:102AF00003DA2D2001F8010B5B420B480DE093FB3C
:102B0000F0F202B936B102F1300701F8017B02FBA5
:102B1000103301260A2790FBF7F00028EFDC002095
:102B200008700846DAE7000040420F00FFF7A8FAF5
:102B300007E0012203A10648FFF7B0F86420FFF781
:102B4000D9FEF6E774696D653A25640D0A00000048
:102B50000010014010B500290AD00878002807D0DD
:102B600005487844FDF7BCFF002801D0002010BDC7
:102B70000248784410BD0000E6050000DE050000B4
:102B80002DE9C04130B4DFF8A0C23CEA111418BFEF
:102B90003CEA131400F0EC8081EA03051CEA1114EE
:102BA00044EAD57418BF1CEA131500F0C780A4EBE3
:102BB00005044FF0004545EAC12145EAC32341EA37
:102BC000505143EA525304F17F74994204F50034A2
:102BD0004FEAC0204FEAC22208BF904200F09C801A
:102BE0004FEA13650FF24016765D4FEA134506FB78
:102BF00005F7C7F1807706FB07F74FEAD737A7FB42
:102C000003687642C8F58038A7FB06CE38BFA8F126
:102C1000010807FB08E64FF0000EA6FB028CE6FB5E
:102C200003CEDCF1000CCEF1004E38BFAEF1010E48
:102C3000A6FB0C584FF000074FF00005E6FB0E878F
:102C4000A1FB08C6A0FB07CE16EB0E0645F100055A
:102C5000E1FB076515F1E04E7EBFA4F580345FEA25
:102C600046066D4116F1800745F100054FEA17272A
:102C70004FEA066647EA0567A6F1DE46B6F1805FD1
:102C80004FEA15251FD9384624F0010C05EBC47115
:102C9000BCF1FE6F01EB0C1102D8F0BCBDE8008165
:102CA00024425CBF01F5801E9EEAC47F02D4F0BCC2
:102CB000BDE80081244238D4F0BCA1F1C041BDE898
:102CC000004100F0C5B94FEAD22242EA43524FEA2E
:102CD000D323A7FB02864FEAD02040EA415007FBEE
:102CE00003661EEA0E0F4FEAD12105FB026658BFAC
:102CF000A6EB0056B6EB00564FEA520E4EEAC37EE4
:102D000018EB0E0E56EB530EBDD518EB02085E41C4
:102D10007F1C55F10005B6E74FF480154FF0000712
:102D20004FF000064FF00008ADE7F0BC4FF0000098
:102D300001F1C04101F00041BDE8008111EA0C1F22
:102D40000CEA131500D00CE013EA0C1F00F02580EC
:102D50004FF00000F0BC81EA030101F00041BDE842
:102D60000081F0BCBDE8004181EA030100F070B9C8
:102D7000F0BCBDE8004170B500F01CF9097EFC3ED6
:102D800000F007B881EA03014FF0000001F00041B4
:102D9000704781EA030100F05BB9F0BCBDE8004177
:102DA0004FF0000021497047FFFDFBF9F7F5F4F201
:102DB000F0EEEDEBE9E8E6E4E3E1E0DEDDDBDAD8D6
:102DC000D7D5D4D3D1D0CFCDCCCBCAC8C7C6C5C434
:102DD000C2C1C0BFBEBDBCBBBAB9B8B7B6B5B4B34B
:102DE000B2B1B0AFAEADACABAAA9A8A8A7A6A5A436
:102DF000A3A3A2A1A09F9F9E9D9C9C9B9A999998FA
:102E00009797969595949393929191908F8F8E8E9C
:102E10008D8C8C8B8B8A8989888887878685858429
:102E200084838382828181800000FF070000F87F15
:102E300010F0004248BF4042B0FA80F310FA03F1AC
:102E40000AD0C3F11D0303F580634FEA415002EB42
:102E5000035202EBD12170474FF000007047000091
:102E6000DFF848C170B51CEA111E1EBF1CEA13151D
:102E70009EEA0C0F95EA0C0F00F06F8081EA0304C4
:102E800023EA4C134EEAD47E21EA4C1141F480111E
:102E900043F48013AE44A1FB024CA0FB0365AEF1EA
:102EA0007F7E361955EB0C05A1FB034C4CF100035A
:102EB000A0FB021C16EB0C06654153F1000309420E
:102EC00018BF46F0010613F4007F0BD14FEA03311F
:102ED0004FEA0530340341EA155140EA16506FF0CD
:102EE00003020AE04FEAC3214FEAC520F40241EA97
:102EF000555140EA56506FF0020202EB2E4201EBB0
:102F0000025585EACE710AD05FEA440C18BF24F05E
:102F1000004450F1000041F1000120EAD47040F279
:102F2000FE7C624500D270BDA84214BF4FF08044C1
:102F30004FF04044002E08BF0024BEF1806FA8BFB0
:102F4000A1F1C041BDE8704080F282804FF00000E6
:102F500001F1C04101F0004170479EEA0C0F0CEAFC
:102F6000131518BF95EA0C0F06D04FF0000081EA48
:102F7000030E0EF0004170BD00F01CF88900013E08
:102F800000F007B800F009B84FEA430C5FEA5C5C58
:102F900008D081EA030100F05BB84FEA410C5FEA18
:102FA0005C5CF6D14FF00000014970470000FF075C
:102FB0000000F87F0EF1020E2EF0030E5EF8046B97
:102FC000364205D4012A43EB030515F5001F12D83C
:102FD000012841EB010C1CF5001F0CD80ED14FEA63
:102FE000D17C15F5001F0CEB4C0C0CF1020C08BF4A
:102FF0004CEBD37C04E04FF0080C01E04FEAD37CAB
:103000000CEB4C0526FA05F606F00706B6F1040CA3
:1030100006D20EEB860CBDE870404CF0010C604708
:10302000DFE80CF0090B02024FF000414FF0000006
:10303000A1F5002170BD19461046012851EB01048D
:1030400018BFD4F5001484BF002001F0004170BD0A
:103050000808A0F500114FEA310170474FF04070A9
:10306000E1EE100A7047FDF7B8BA3031323334352B
:1030700036373839414243444546403058003031B4
:1030800032333435363738396162636465664030CF
:103090007800000002400000000000A000000000D6
:1030A00005400000000000C8000000000C400000C7
:1030B0000000409C00000000194000000020BCBE41
:1030C0000000000034400000BFC91B8E0000000457
:1030D000B5400000504BCFD06607E2CF01000000A2
:1030E0006C4100003E8251AADFEEA73401000000CF
:1030F000D9420000DCB5A0E23A301F97FFFFFFFF86
:10310000B4450000FD25A0C8E9A3C14FFFFFFFFFA4
:10311000FF3F00000000008000000000FF3F0000B3
:103120000000008000000000643100080000002062
:1031300038000000C40100089C310008380000205D
:10314000D0060000E00100081C0000004300000061
:10315000F8FFFFFF0C0000000E0000000F00000051
:103160002E000000007A030A0000000000000000AA
:103170000102030406070809000000000000000027
:10318000000000000000000000000000000001023C
:0C31900003040102030406070809000004
:040000050800018965
:00000001FF
